{
	"data": {
		"bytecode": {
			"linkReferences": {},
			"object": "61081861004e600b8282823980515f1a607314610042577f4e487b71000000000000000000000000000000000000000000000000000000005f525f60045260245ffd5b305f52607381538281f3fe7300000000000000000000000000000000000000003014608060405260043610610055575f3560e01c80636900a3ae146100595780636c3e8e9c146100895780638d043c49146100b9578063ace5b13c146100e9575b5f80fd5b610073600480360381019061006e9190610383565b610119565b6040516100809190610438565b60405180910390f35b6100a3600480360381019061009e9190610383565b610130565b6040516100b091906104aa565b60405180910390f35b6100d360048036038101906100ce9190610383565b61018d565b6040516100e091906104aa565b60405180910390f35b61010360048036038101906100fe9190610383565b610277565b60405161011091906104aa565b60405180910390f35b60605f61012583610277565b905080915050919050565b6060602067ffffffffffffffff81111561014d5761014c6104ca565b5b6040519080825280601f01601f19166020018201604052801561017f5781602001600182028036833780820191505090505b509050816020820152919050565b6060602067ffffffffffffffff8111156101aa576101a96104ca565b5b6040519080825280601f01601f1916602001820160405280156101dc5781602001600182028036833780820191505090505b5090505f5b60208110156102715780601f6101f79190610524565b60086102039190610557565b600261020f91906106c7565b8361021a919061073e565b60f81b8282815181106102305761022f61076e565b5b60200101907effffffffffffffffffffffffffffffffffffffffffffffffffffffffffffff191690815f1a90535080806102699061079b565b9150506101e1565b50919050565b60605f825f1b9050602067ffffffffffffffff81111561029a576102996104ca565b5b6040519080825280601f01601f1916602001820160405280156102cc5781602001600182028036833780820191505090505b5091505f5b6020811015610345578181602081106102ed576102ec61076e565b5b1a60f81b8382815181106103045761030361076e565b5b60200101907effffffffffffffffffffffffffffffffffffffffffffffffffffffffffffff191690815f1a905350808061033d9061079b565b9150506102d1565b5050919050565b5f80fd5b5f819050919050565b61036281610350565b811461036c575f80fd5b50565b5f8135905061037d81610359565b92915050565b5f602082840312156103985761039761034c565b5b5f6103a58482850161036f565b91505092915050565b5f81519050919050565b5f82825260208201905092915050565b5f5b838110156103e55780820151818401526020810190506103ca565b5f8484015250505050565b5f601f19601f8301169050919050565b5f61040a826103ae565b61041481856103b8565b93506104248185602086016103c8565b61042d816103f0565b840191505092915050565b5f6020820190508181035f8301526104508184610400565b905092915050565b5f81519050919050565b5f82825260208201905092915050565b5f61047c82610458565b6104868185610462565b93506104968185602086016103c8565b61049f816103f0565b840191505092915050565b5f6020820190508181035f8301526104c28184610472565b905092915050565b7f4e487b71000000000000000000000000000000000000000000000000000000005f52604160045260245ffd5b7f4e487b71000000000000000000000000000000000000000000000000000000005f52601160045260245ffd5b5f61052e82610350565b915061053983610350565b9250828203905081811115610551576105506104f7565b5b92915050565b5f61056182610350565b915061056c83610350565b925082820261057a81610350565b91508282048414831517610591576105906104f7565b5b5092915050565b5f8160011c9050919050565b5f808291508390505b60018511156105ed578086048111156105c9576105c86104f7565b5b60018516156105d85780820291505b80810290506105e685610598565b94506105ad565b94509492505050565b5f8261060557600190506106c0565b81610612575f90506106c0565b8160018114610628576002811461063257610661565b60019150506106c0565b60ff841115610644576106436104f7565b5b8360020a91508482111561065b5761065a6104f7565b5b506106c0565b5060208310610133831016604e8410600b84101617156106965782820a905083811115610691576106906104f7565b5b6106c0565b6106a384848460016105a4565b925090508184048111156106ba576106b96104f7565b5b81810290505b9392505050565b5f6106d182610350565b91506106dc83610350565b92506107097fffffffffffffffffffffffffffffffffffffffffffffffffffffffffffffffff84846105f6565b905092915050565b7f4e487b71000000000000000000000000000000000000000000000000000000005f52601260045260245ffd5b5f61074882610350565b915061075383610350565b92508261076357610762610711565b5b828204905092915050565b7f4e487b71000000000000000000000000000000000000000000000000000000005f52603260045260245ffd5b5f6107a582610350565b91507fffffffffffffffffffffffffffffffffffffffffffffffffffffffffffffffff82036107d7576107d66104f7565b5b60018201905091905056fea2646970667358221220d28fcbb267eedacbd8635bb18aef063a16a5e0f7ff1c1e70d365c23162f4dd8e64736f6c63430008140033",
			"opcodes": "PUSH2 0x818 PUSH2 0x4E PUSH1 0xB DUP3 DUP3 DUP3 CODECOPY DUP1 MLOAD PUSH0 BYTE PUSH1 0x73 EQ PUSH2 0x42 JUMPI PUSH32 0x4E487B7100000000000000000000000000000000000000000000000000000000 PUSH0 MSTORE PUSH0 PUSH1 0x4 MSTORE PUSH1 0x24 PUSH0 REVERT JUMPDEST ADDRESS PUSH0 MSTORE PUSH1 0x73 DUP2 MSTORE8 DUP3 DUP2 RETURN INVALID PUSH20 0x0 ADDRESS EQ PUSH1 0x80 PUSH1 0x40 MSTORE PUSH1 0x4 CALLDATASIZE LT PUSH2 0x55 JUMPI PUSH0 CALLDATALOAD PUSH1 0xE0 SHR DUP1 PUSH4 0x6900A3AE EQ PUSH2 0x59 JUMPI DUP1 PUSH4 0x6C3E8E9C EQ PUSH2 0x89 JUMPI DUP1 PUSH4 0x8D043C49 EQ PUSH2 0xB9 JUMPI DUP1 PUSH4 0xACE5B13C EQ PUSH2 0xE9 JUMPI JUMPDEST PUSH0 DUP1 REVERT JUMPDEST PUSH2 0x73 PUSH1 0x4 DUP1 CALLDATASIZE SUB DUP2 ADD SWAP1 PUSH2 0x6E SWAP2 SWAP1 PUSH2 0x383 JUMP JUMPDEST PUSH2 0x119 JUMP JUMPDEST PUSH1 0x40 MLOAD PUSH2 0x80 SWAP2 SWAP1 PUSH2 0x438 JUMP JUMPDEST PUSH1 0x40 MLOAD DUP1 SWAP2 SUB SWAP1 RETURN JUMPDEST PUSH2 0xA3 PUSH1 0x4 DUP1 CALLDATASIZE SUB DUP2 ADD SWAP1 PUSH2 0x9E SWAP2 SWAP1 PUSH2 0x383 JUMP JUMPDEST PUSH2 0x130 JUMP JUMPDEST PUSH1 0x40 MLOAD PUSH2 0xB0 SWAP2 SWAP1 PUSH2 0x4AA JUMP JUMPDEST PUSH1 0x40 MLOAD DUP1 SWAP2 SUB SWAP1 RETURN JUMPDEST PUSH2 0xD3 PUSH1 0x4 DUP1 CALLDATASIZE SUB DUP2 ADD SWAP1 PUSH2 0xCE SWAP2 SWAP1 PUSH2 0x383 JUMP JUMPDEST PUSH2 0x18D JUMP JUMPDEST PUSH1 0x40 MLOAD PUSH2 0xE0 SWAP2 SWAP1 PUSH2 0x4AA JUMP JUMPDEST PUSH1 0x40 MLOAD DUP1 SWAP2 SUB SWAP1 RETURN JUMPDEST PUSH2 0x103 PUSH1 0x4 DUP1 CALLDATASIZE SUB DUP2 ADD SWAP1 PUSH2 0xFE SWAP2 SWAP1 PUSH2 0x383 JUMP JUMPDEST PUSH2 0x277 JUMP JUMPDEST PUSH1 0x40 MLOAD PUSH2 0x110 SWAP2 SWAP1 PUSH2 0x4AA JUMP JUMPDEST PUSH1 0x40 MLOAD DUP1 SWAP2 SUB SWAP1 RETURN JUMPDEST PUSH1 0x60 PUSH0 PUSH2 0x125 DUP4 PUSH2 0x277 JUMP JUMPDEST SWAP1 POP DUP1 SWAP2 POP POP SWAP2 SWAP1 POP JUMP JUMPDEST PUSH1 0x60 PUSH1 0x20 PUSH8 0xFFFFFFFFFFFFFFFF DUP2 GT ISZERO PUSH2 0x14D JUMPI PUSH2 0x14C PUSH2 0x4CA JUMP JUMPDEST JUMPDEST PUSH1 0x40 MLOAD SWAP1 DUP1 DUP3 MSTORE DUP1 PUSH1 0x1F ADD PUSH1 0x1F NOT AND PUSH1 0x20 ADD DUP3 ADD PUSH1 0x40 MSTORE DUP1 ISZERO PUSH2 0x17F JUMPI DUP2 PUSH1 0x20 ADD PUSH1 0x1 DUP3 MUL DUP1 CALLDATASIZE DUP4 CALLDATACOPY DUP1 DUP3 ADD SWAP2 POP POP SWAP1 POP JUMPDEST POP SWAP1 POP DUP2 PUSH1 0x20 DUP3 ADD MSTORE SWAP2 SWAP1 POP JUMP JUMPDEST PUSH1 0x60 PUSH1 0x20 PUSH8 0xFFFFFFFFFFFFFFFF DUP2 GT ISZERO PUSH2 0x1AA JUMPI PUSH2 0x1A9 PUSH2 0x4CA JUMP JUMPDEST JUMPDEST PUSH1 0x40 MLOAD SWAP1 DUP1 DUP3 MSTORE DUP1 PUSH1 0x1F ADD PUSH1 0x1F NOT AND PUSH1 0x20 ADD DUP3 ADD PUSH1 0x40 MSTORE DUP1 ISZERO PUSH2 0x1DC JUMPI DUP2 PUSH1 0x20 ADD PUSH1 0x1 DUP3 MUL DUP1 CALLDATASIZE DUP4 CALLDATACOPY DUP1 DUP3 ADD SWAP2 POP POP SWAP1 POP JUMPDEST POP SWAP1 POP PUSH0 JUMPDEST PUSH1 0x20 DUP2 LT ISZERO PUSH2 0x271 JUMPI DUP1 PUSH1 0x1F PUSH2 0x1F7 SWAP2 SWAP1 PUSH2 0x524 JUMP JUMPDEST PUSH1 0x8 PUSH2 0x203 SWAP2 SWAP1 PUSH2 0x557 JUMP JUMPDEST PUSH1 0x2 PUSH2 0x20F SWAP2 SWAP1 PUSH2 0x6C7 JUMP JUMPDEST DUP4 PUSH2 0x21A SWAP2 SWAP1 PUSH2 0x73E JUMP JUMPDEST PUSH1 0xF8 SHL DUP3 DUP3 DUP2 MLOAD DUP2 LT PUSH2 0x230 JUMPI PUSH2 0x22F PUSH2 0x76E JUMP JUMPDEST JUMPDEST PUSH1 0x20 ADD ADD SWAP1 PUSH31 0xFFFFFFFFFFFFFFFFFFFFFFFFFFFFFFFFFFFFFFFFFFFFFFFFFFFFFFFFFFFFFF NOT AND SWAP1 DUP2 PUSH0 BYTE SWAP1 MSTORE8 POP DUP1 DUP1 PUSH2 0x269 SWAP1 PUSH2 0x79B JUMP JUMPDEST SWAP2 POP POP PUSH2 0x1E1 JUMP JUMPDEST POP SWAP2 SWAP1 POP JUMP JUMPDEST PUSH1 0x60 PUSH0 DUP3 PUSH0 SHL SWAP1 POP PUSH1 0x20 PUSH8 0xFFFFFFFFFFFFFFFF DUP2 GT ISZERO PUSH2 0x29A JUMPI PUSH2 0x299 PUSH2 0x4CA JUMP JUMPDEST JUMPDEST PUSH1 0x40 MLOAD SWAP1 DUP1 DUP3 MSTORE DUP1 PUSH1 0x1F ADD PUSH1 0x1F NOT AND PUSH1 0x20 ADD DUP3 ADD PUSH1 0x40 MSTORE DUP1 ISZERO PUSH2 0x2CC JUMPI DUP2 PUSH1 0x20 ADD PUSH1 0x1 DUP3 MUL DUP1 CALLDATASIZE DUP4 CALLDATACOPY DUP1 DUP3 ADD SWAP2 POP POP SWAP1 POP JUMPDEST POP SWAP2 POP PUSH0 JUMPDEST PUSH1 0x20 DUP2 LT ISZERO PUSH2 0x345 JUMPI DUP2 DUP2 PUSH1 0x20 DUP2 LT PUSH2 0x2ED JUMPI PUSH2 0x2EC PUSH2 0x76E JUMP JUMPDEST JUMPDEST BYTE PUSH1 0xF8 SHL DUP4 DUP3 DUP2 MLOAD DUP2 LT PUSH2 0x304 JUMPI PUSH2 0x303 PUSH2 0x76E JUMP JUMPDEST JUMPDEST PUSH1 0x20 ADD ADD SWAP1 PUSH31 0xFFFFFFFFFFFFFFFFFFFFFFFFFFFFFFFFFFFFFFFFFFFFFFFFFFFFFFFFFFFFFF NOT AND SWAP1 DUP2 PUSH0 BYTE SWAP1 MSTORE8 POP DUP1 DUP1 PUSH2 0x33D SWAP1 PUSH2 0x79B JUMP JUMPDEST SWAP2 POP POP PUSH2 0x2D1 JUMP JUMPDEST POP POP SWAP2 SWAP1 POP JUMP JUMPDEST PUSH0 DUP1 REVERT JUMPDEST PUSH0 DUP2 SWAP1 POP SWAP2 SWAP1 POP JUMP JUMPDEST PUSH2 0x362 DUP2 PUSH2 0x350 JUMP JUMPDEST DUP2 EQ PUSH2 0x36C JUMPI PUSH0 DUP1 REVERT JUMPDEST POP JUMP JUMPDEST PUSH0 DUP2 CALLDATALOAD SWAP1 POP PUSH2 0x37D DUP2 PUSH2 0x359 JUMP JUMPDEST SWAP3 SWAP2 POP POP JUMP JUMPDEST PUSH0 PUSH1 0x20 DUP3 DUP5 SUB SLT ISZERO PUSH2 0x398 JUMPI PUSH2 0x397 PUSH2 0x34C JUMP JUMPDEST JUMPDEST PUSH0 PUSH2 0x3A5 DUP5 DUP3 DUP6 ADD PUSH2 0x36F JUMP JUMPDEST SWAP2 POP POP SWAP3 SWAP2 POP POP JUMP JUMPDEST PUSH0 DUP2 MLOAD SWAP1 POP SWAP2 SWAP1 POP JUMP JUMPDEST PUSH0 DUP3 DUP3 MSTORE PUSH1 0x20 DUP3 ADD SWAP1 POP SWAP3 SWAP2 POP POP JUMP JUMPDEST PUSH0 JUMPDEST DUP4 DUP2 LT ISZERO PUSH2 0x3E5 JUMPI DUP1 DUP3 ADD MLOAD DUP2 DUP5 ADD MSTORE PUSH1 0x20 DUP2 ADD SWAP1 POP PUSH2 0x3CA JUMP JUMPDEST PUSH0 DUP5 DUP5 ADD MSTORE POP POP POP POP JUMP JUMPDEST PUSH0 PUSH1 0x1F NOT PUSH1 0x1F DUP4 ADD AND SWAP1 POP SWAP2 SWAP1 POP JUMP JUMPDEST PUSH0 PUSH2 0x40A DUP3 PUSH2 0x3AE JUMP JUMPDEST PUSH2 0x414 DUP2 DUP6 PUSH2 0x3B8 JUMP JUMPDEST SWAP4 POP PUSH2 0x424 DUP2 DUP6 PUSH1 0x20 DUP7 ADD PUSH2 0x3C8 JUMP JUMPDEST PUSH2 0x42D DUP2 PUSH2 0x3F0 JUMP JUMPDEST DUP5 ADD SWAP2 POP POP SWAP3 SWAP2 POP POP JUMP JUMPDEST PUSH0 PUSH1 0x20 DUP3 ADD SWAP1 POP DUP2 DUP2 SUB PUSH0 DUP4 ADD MSTORE PUSH2 0x450 DUP2 DUP5 PUSH2 0x400 JUMP JUMPDEST SWAP1 POP SWAP3 SWAP2 POP POP JUMP JUMPDEST PUSH0 DUP2 MLOAD SWAP1 POP SWAP2 SWAP1 POP JUMP JUMPDEST PUSH0 DUP3 DUP3 MSTORE PUSH1 0x20 DUP3 ADD SWAP1 POP SWAP3 SWAP2 POP POP JUMP JUMPDEST PUSH0 PUSH2 0x47C DUP3 PUSH2 0x458 JUMP JUMPDEST PUSH2 0x486 DUP2 DUP6 PUSH2 0x462 JUMP JUMPDEST SWAP4 POP PUSH2 0x496 DUP2 DUP6 PUSH1 0x20 DUP7 ADD PUSH2 0x3C8 JUMP JUMPDEST PUSH2 0x49F DUP2 PUSH2 0x3F0 JUMP JUMPDEST DUP5 ADD SWAP2 POP POP SWAP3 SWAP2 POP POP JUMP JUMPDEST PUSH0 PUSH1 0x20 DUP3 ADD SWAP1 POP DUP2 DUP2 SUB PUSH0 DUP4 ADD MSTORE PUSH2 0x4C2 DUP2 DUP5 PUSH2 0x472 JUMP JUMPDEST SWAP1 POP SWAP3 SWAP2 POP POP JUMP JUMPDEST PUSH32 0x4E487B7100000000000000000000000000000000000000000000000000000000 PUSH0 MSTORE PUSH1 0x41 PUSH1 0x4 MSTORE PUSH1 0x24 PUSH0 REVERT JUMPDEST PUSH32 0x4E487B7100000000000000000000000000000000000000000000000000000000 PUSH0 MSTORE PUSH1 0x11 PUSH1 0x4 MSTORE PUSH1 0x24 PUSH0 REVERT JUMPDEST PUSH0 PUSH2 0x52E DUP3 PUSH2 0x350 JUMP JUMPDEST SWAP2 POP PUSH2 0x539 DUP4 PUSH2 0x350 JUMP JUMPDEST SWAP3 POP DUP3 DUP3 SUB SWAP1 POP DUP2 DUP2 GT ISZERO PUSH2 0x551 JUMPI PUSH2 0x550 PUSH2 0x4F7 JUMP JUMPDEST JUMPDEST SWAP3 SWAP2 POP POP JUMP JUMPDEST PUSH0 PUSH2 0x561 DUP3 PUSH2 0x350 JUMP JUMPDEST SWAP2 POP PUSH2 0x56C DUP4 PUSH2 0x350 JUMP JUMPDEST SWAP3 POP DUP3 DUP3 MUL PUSH2 0x57A DUP2 PUSH2 0x350 JUMP JUMPDEST SWAP2 POP DUP3 DUP3 DIV DUP5 EQ DUP4 ISZERO OR PUSH2 0x591 JUMPI PUSH2 0x590 PUSH2 0x4F7 JUMP JUMPDEST JUMPDEST POP SWAP3 SWAP2 POP POP JUMP JUMPDEST PUSH0 DUP2 PUSH1 0x1 SHR SWAP1 POP SWAP2 SWAP1 POP JUMP JUMPDEST PUSH0 DUP1 DUP3 SWAP2 POP DUP4 SWAP1 POP JUMPDEST PUSH1 0x1 DUP6 GT ISZERO PUSH2 0x5ED JUMPI DUP1 DUP7 DIV DUP2 GT ISZERO PUSH2 0x5C9 JUMPI PUSH2 0x5C8 PUSH2 0x4F7 JUMP JUMPDEST JUMPDEST PUSH1 0x1 DUP6 AND ISZERO PUSH2 0x5D8 JUMPI DUP1 DUP3 MUL SWAP2 POP JUMPDEST DUP1 DUP2 MUL SWAP1 POP PUSH2 0x5E6 DUP6 PUSH2 0x598 JUMP JUMPDEST SWAP5 POP PUSH2 0x5AD JUMP JUMPDEST SWAP5 POP SWAP5 SWAP3 POP POP POP JUMP JUMPDEST PUSH0 DUP3 PUSH2 0x605 JUMPI PUSH1 0x1 SWAP1 POP PUSH2 0x6C0 JUMP JUMPDEST DUP2 PUSH2 0x612 JUMPI PUSH0 SWAP1 POP PUSH2 0x6C0 JUMP JUMPDEST DUP2 PUSH1 0x1 DUP2 EQ PUSH2 0x628 JUMPI PUSH1 0x2 DUP2 EQ PUSH2 0x632 JUMPI PUSH2 0x661 JUMP JUMPDEST PUSH1 0x1 SWAP2 POP POP PUSH2 0x6C0 JUMP JUMPDEST PUSH1 0xFF DUP5 GT ISZERO PUSH2 0x644 JUMPI PUSH2 0x643 PUSH2 0x4F7 JUMP JUMPDEST JUMPDEST DUP4 PUSH1 0x2 EXP SWAP2 POP DUP5 DUP3 GT ISZERO PUSH2 0x65B JUMPI PUSH2 0x65A PUSH2 0x4F7 JUMP JUMPDEST JUMPDEST POP PUSH2 0x6C0 JUMP JUMPDEST POP PUSH1 0x20 DUP4 LT PUSH2 0x133 DUP4 LT AND PUSH1 0x4E DUP5 LT PUSH1 0xB DUP5 LT AND OR ISZERO PUSH2 0x696 JUMPI DUP3 DUP3 EXP SWAP1 POP DUP4 DUP2 GT ISZERO PUSH2 0x691 JUMPI PUSH2 0x690 PUSH2 0x4F7 JUMP JUMPDEST JUMPDEST PUSH2 0x6C0 JUMP JUMPDEST PUSH2 0x6A3 DUP5 DUP5 DUP5 PUSH1 0x1 PUSH2 0x5A4 JUMP JUMPDEST SWAP3 POP SWAP1 POP DUP2 DUP5 DIV DUP2 GT ISZERO PUSH2 0x6BA JUMPI PUSH2 0x6B9 PUSH2 0x4F7 JUMP JUMPDEST JUMPDEST DUP2 DUP2 MUL SWAP1 POP JUMPDEST SWAP4 SWAP3 POP POP POP JUMP JUMPDEST PUSH0 PUSH2 0x6D1 DUP3 PUSH2 0x350 JUMP JUMPDEST SWAP2 POP PUSH2 0x6DC DUP4 PUSH2 0x350 JUMP JUMPDEST SWAP3 POP PUSH2 0x709 PUSH32 0xFFFFFFFFFFFFFFFFFFFFFFFFFFFFFFFFFFFFFFFFFFFFFFFFFFFFFFFFFFFFFFFF DUP5 DUP5 PUSH2 0x5F6 JUMP JUMPDEST SWAP1 POP SWAP3 SWAP2 POP POP JUMP JUMPDEST PUSH32 0x4E487B7100000000000000000000000000000000000000000000000000000000 PUSH0 MSTORE PUSH1 0x12 PUSH1 0x4 MSTORE PUSH1 0x24 PUSH0 REVERT JUMPDEST PUSH0 PUSH2 0x748 DUP3 PUSH2 0x350 JUMP JUMPDEST SWAP2 POP PUSH2 0x753 DUP4 PUSH2 0x350 JUMP JUMPDEST SWAP3 POP DUP3 PUSH2 0x763 JUMPI PUSH2 0x762 PUSH2 0x711 JUMP JUMPDEST JUMPDEST DUP3 DUP3 DIV SWAP1 POP SWAP3 SWAP2 POP POP JUMP JUMPDEST PUSH32 0x4E487B7100000000000000000000000000000000000000000000000000000000 PUSH0 MSTORE PUSH1 0x32 PUSH1 0x4 MSTORE PUSH1 0x24 PUSH0 REVERT JUMPDEST PUSH0 PUSH2 0x7A5 DUP3 PUSH2 0x350 JUMP JUMPDEST SWAP2 POP PUSH32 0xFFFFFFFFFFFFFFFFFFFFFFFFFFFFFFFFFFFFFFFFFFFFFFFFFFFFFFFFFFFFFFFF DUP3 SUB PUSH2 0x7D7 JUMPI PUSH2 0x7D6 PUSH2 0x4F7 JUMP JUMPDEST JUMPDEST PUSH1 0x1 DUP3 ADD SWAP1 POP SWAP2 SWAP1 POP JUMP INVALID LOG2 PUSH5 0x6970667358 0x22 SLT KECCAK256 0xD2 DUP16 0xCB 0xB2 PUSH8 0xEEDACBD8635BB18A 0xEF MOD GASPRICE AND 0xA5 0xE0 0xF7 SELFDESTRUCT SHR 0x1E PUSH17 0xD365C23162F4DD8E64736F6C6343000814 STOP CALLER "
		},
		"gasEstimates": {
			"creation": {
				"codeDepositCost": "414400",
				"executionCost": "475",
				"totalCost": "414875"
			},
			"external": {
				"toBytesEth(uint256)": "infinite",
				"toBytesNickJohnson(uint256)": "infinite",
				"toBytesNicolasMassart(uint256)": "infinite",
				"toString(uint256)": "infinite"
			}
		},
		"methodIdentifiers": {
			"toBytesEth(uint256)": "8d043c49",
			"toBytesNickJohnson(uint256)": "6c3e8e9c",
			"toBytesNicolasMassart(uint256)": "ace5b13c",
			"toString(uint256)": "6900a3ae"
		}
	},
	"abi": [
		{
			"inputs": [
				{
					"internalType": "uint256",
					"name": "x",
					"type": "uint256"
				}
			],
			"name": "toBytesEth",
			"outputs": [
				{
					"internalType": "bytes",
					"name": "b",
					"type": "bytes"
				}
			],
			"stateMutability": "pure",
			"type": "function"
		},
		{
			"inputs": [
				{
					"internalType": "uint256",
					"name": "x",
					"type": "uint256"
				}
			],
			"name": "toBytesNickJohnson",
			"outputs": [
				{
					"internalType": "bytes",
					"name": "b",
					"type": "bytes"
				}
			],
			"stateMutability": "pure",
			"type": "function"
		},
		{
			"inputs": [
				{
					"internalType": "uint256",
					"name": "x",
					"type": "uint256"
				}
			],
			"name": "toBytesNicolasMassart",
			"outputs": [
				{
					"internalType": "bytes",
					"name": "c",
					"type": "bytes"
				}
			],
			"stateMutability": "pure",
			"type": "function"
		},
		{
			"inputs": [
				{
					"internalType": "uint256",
					"name": "playChoice",
					"type": "uint256"
				}
			],
			"name": "toString",
			"outputs": [
				{
					"internalType": "string",
					"name": "s",
					"type": "string"
				}
			],
			"stateMutability": "pure",
			"type": "function"
		}
	]
}