{
	"data": {
		"bytecode": {
			"linkReferences": {},
			"object": "6106d361004e600b8282823980515f1a607314610042577f4e487b71000000000000000000000000000000000000000000000000000000005f525f60045260245ffd5b305f52607381538281f3fe730000000000000000000000000000000000000000301460806040526004361061004a575f3560e01c806303e9779f1461004e57806388d8da5f1461007e5780639b2a1ce0146100ae575b5f80fd5b61006860048036038101906100639190610211565b6100de565b6040516100759190610319565b60405180910390f35b61009860048036038101906100939190610461565b610110565b6040516100a591906104f1565b60405180910390f35b6100c860048036038101906100c3919061053d565b610172565b6040516100d59190610319565b60405180910390f35b6060848484846040516020016100f794939291906105c8565b6040516020818303038152906040529050949350505050565b5f80836040516020016101239190610637565b6040516020818303038152906040528051906020012090505f8360405160200161014d9190610637565b6040516020818303038152906040528051906020012090508082149250505092915050565b6060838360405160200161018792919061067a565b60405160208183030381529060405290509392505050565b5f604051905090565b5f80fd5b5f80fd5b5f80fd5b5f80fd5b5f80fd5b5f8083601f8401126101d1576101d06101b0565b5b8235905067ffffffffffffffff8111156101ee576101ed6101b4565b5b60208301915083600182028301111561020a576102096101b8565b5b9250929050565b5f805f8060408587031215610229576102286101a8565b5b5f85013567ffffffffffffffff811115610246576102456101ac565b5b610252878288016101bc565b9450945050602085013567ffffffffffffffff811115610275576102746101ac565b5b610281878288016101bc565b925092505092959194509250565b5f81519050919050565b5f82825260208201905092915050565b5f5b838110156102c65780820151818401526020810190506102ab565b5f8484015250505050565b5f601f19601f8301169050919050565b5f6102eb8261028f565b6102f58185610299565b93506103058185602086016102a9565b61030e816102d1565b840191505092915050565b5f6020820190508181035f83015261033181846102e1565b905092915050565b5f80fd5b7f4e487b71000000000000000000000000000000000000000000000000000000005f52604160045260245ffd5b610373826102d1565b810181811067ffffffffffffffff821117156103925761039161033d565b5b80604052505050565b5f6103a461019f565b90506103b0828261036a565b919050565b5f67ffffffffffffffff8211156103cf576103ce61033d565b5b6103d8826102d1565b9050602081019050919050565b828183375f83830152505050565b5f610405610400846103b5565b61039b565b90508281526020810184848401111561042157610420610339565b5b61042c8482856103e5565b509392505050565b5f82601f830112610448576104476101b0565b5b81356104588482602086016103f3565b91505092915050565b5f8060408385031215610477576104766101a8565b5b5f83013567ffffffffffffffff811115610494576104936101ac565b5b6104a085828601610434565b925050602083013567ffffffffffffffff8111156104c1576104c06101ac565b5b6104cd85828601610434565b9150509250929050565b5f8115159050919050565b6104eb816104d7565b82525050565b5f6020820190506105045f8301846104e2565b92915050565b5f819050919050565b61051c8161050a565b8114610526575f80fd5b50565b5f8135905061053781610513565b92915050565b5f805f60408486031215610554576105536101a8565b5b5f84013567ffffffffffffffff811115610571576105706101ac565b5b61057d868287016101bc565b9350935050602061059086828701610529565b9150509250925092565b5f81905092915050565b5f6105af838561059a565b93506105bc8385846103e5565b82840190509392505050565b5f6105d48286886105a4565b91506105e18284866105a4565b915081905095945050505050565b5f82825260208201905092915050565b5f6106098261028f565b61061381856105ef565b93506106238185602086016102a9565b61062c816102d1565b840191505092915050565b5f6020820190508181035f83015261064f81846105ff565b905092915050565b50565b5f6106655f8361059a565b915061067082610657565b5f82019050919050565b5f6106868284866105a4565b91506106918261065a565b9150819050939250505056fea2646970667358221220033d34af19ed9ba04b2374c2490fae1bb107340352fa6322d8c31be2f8cde21664736f6c63430008140033",
			"opcodes": "PUSH2 0x6D3 PUSH2 0x4E PUSH1 0xB DUP3 DUP3 DUP3 CODECOPY DUP1 MLOAD PUSH0 BYTE PUSH1 0x73 EQ PUSH2 0x42 JUMPI PUSH32 0x4E487B7100000000000000000000000000000000000000000000000000000000 PUSH0 MSTORE PUSH0 PUSH1 0x4 MSTORE PUSH1 0x24 PUSH0 REVERT JUMPDEST ADDRESS PUSH0 MSTORE PUSH1 0x73 DUP2 MSTORE8 DUP3 DUP2 RETURN INVALID PUSH20 0x0 ADDRESS EQ PUSH1 0x80 PUSH1 0x40 MSTORE PUSH1 0x4 CALLDATASIZE LT PUSH2 0x4A JUMPI PUSH0 CALLDATALOAD PUSH1 0xE0 SHR DUP1 PUSH4 0x3E9779F EQ PUSH2 0x4E JUMPI DUP1 PUSH4 0x88D8DA5F EQ PUSH2 0x7E JUMPI DUP1 PUSH4 0x9B2A1CE0 EQ PUSH2 0xAE JUMPI JUMPDEST PUSH0 DUP1 REVERT JUMPDEST PUSH2 0x68 PUSH1 0x4 DUP1 CALLDATASIZE SUB DUP2 ADD SWAP1 PUSH2 0x63 SWAP2 SWAP1 PUSH2 0x211 JUMP JUMPDEST PUSH2 0xDE JUMP JUMPDEST PUSH1 0x40 MLOAD PUSH2 0x75 SWAP2 SWAP1 PUSH2 0x319 JUMP JUMPDEST PUSH1 0x40 MLOAD DUP1 SWAP2 SUB SWAP1 RETURN JUMPDEST PUSH2 0x98 PUSH1 0x4 DUP1 CALLDATASIZE SUB DUP2 ADD SWAP1 PUSH2 0x93 SWAP2 SWAP1 PUSH2 0x461 JUMP JUMPDEST PUSH2 0x110 JUMP JUMPDEST PUSH1 0x40 MLOAD PUSH2 0xA5 SWAP2 SWAP1 PUSH2 0x4F1 JUMP JUMPDEST PUSH1 0x40 MLOAD DUP1 SWAP2 SUB SWAP1 RETURN JUMPDEST PUSH2 0xC8 PUSH1 0x4 DUP1 CALLDATASIZE SUB DUP2 ADD SWAP1 PUSH2 0xC3 SWAP2 SWAP1 PUSH2 0x53D JUMP JUMPDEST PUSH2 0x172 JUMP JUMPDEST PUSH1 0x40 MLOAD PUSH2 0xD5 SWAP2 SWAP1 PUSH2 0x319 JUMP JUMPDEST PUSH1 0x40 MLOAD DUP1 SWAP2 SUB SWAP1 RETURN JUMPDEST PUSH1 0x60 DUP5 DUP5 DUP5 DUP5 PUSH1 0x40 MLOAD PUSH1 0x20 ADD PUSH2 0xF7 SWAP5 SWAP4 SWAP3 SWAP2 SWAP1 PUSH2 0x5C8 JUMP JUMPDEST PUSH1 0x40 MLOAD PUSH1 0x20 DUP2 DUP4 SUB SUB DUP2 MSTORE SWAP1 PUSH1 0x40 MSTORE SWAP1 POP SWAP5 SWAP4 POP POP POP POP JUMP JUMPDEST PUSH0 DUP1 DUP4 PUSH1 0x40 MLOAD PUSH1 0x20 ADD PUSH2 0x123 SWAP2 SWAP1 PUSH2 0x637 JUMP JUMPDEST PUSH1 0x40 MLOAD PUSH1 0x20 DUP2 DUP4 SUB SUB DUP2 MSTORE SWAP1 PUSH1 0x40 MSTORE DUP1 MLOAD SWAP1 PUSH1 0x20 ADD KECCAK256 SWAP1 POP PUSH0 DUP4 PUSH1 0x40 MLOAD PUSH1 0x20 ADD PUSH2 0x14D SWAP2 SWAP1 PUSH2 0x637 JUMP JUMPDEST PUSH1 0x40 MLOAD PUSH1 0x20 DUP2 DUP4 SUB SUB DUP2 MSTORE SWAP1 PUSH1 0x40 MSTORE DUP1 MLOAD SWAP1 PUSH1 0x20 ADD KECCAK256 SWAP1 POP DUP1 DUP3 EQ SWAP3 POP POP POP SWAP3 SWAP2 POP POP JUMP JUMPDEST PUSH1 0x60 DUP4 DUP4 PUSH1 0x40 MLOAD PUSH1 0x20 ADD PUSH2 0x187 SWAP3 SWAP2 SWAP1 PUSH2 0x67A JUMP JUMPDEST PUSH1 0x40 MLOAD PUSH1 0x20 DUP2 DUP4 SUB SUB DUP2 MSTORE SWAP1 PUSH1 0x40 MSTORE SWAP1 POP SWAP4 SWAP3 POP POP POP JUMP JUMPDEST PUSH0 PUSH1 0x40 MLOAD SWAP1 POP SWAP1 JUMP JUMPDEST PUSH0 DUP1 REVERT JUMPDEST PUSH0 DUP1 REVERT JUMPDEST PUSH0 DUP1 REVERT JUMPDEST PUSH0 DUP1 REVERT JUMPDEST PUSH0 DUP1 REVERT JUMPDEST PUSH0 DUP1 DUP4 PUSH1 0x1F DUP5 ADD SLT PUSH2 0x1D1 JUMPI PUSH2 0x1D0 PUSH2 0x1B0 JUMP JUMPDEST JUMPDEST DUP3 CALLDATALOAD SWAP1 POP PUSH8 0xFFFFFFFFFFFFFFFF DUP2 GT ISZERO PUSH2 0x1EE JUMPI PUSH2 0x1ED PUSH2 0x1B4 JUMP JUMPDEST JUMPDEST PUSH1 0x20 DUP4 ADD SWAP2 POP DUP4 PUSH1 0x1 DUP3 MUL DUP4 ADD GT ISZERO PUSH2 0x20A JUMPI PUSH2 0x209 PUSH2 0x1B8 JUMP JUMPDEST JUMPDEST SWAP3 POP SWAP3 SWAP1 POP JUMP JUMPDEST PUSH0 DUP1 PUSH0 DUP1 PUSH1 0x40 DUP6 DUP8 SUB SLT ISZERO PUSH2 0x229 JUMPI PUSH2 0x228 PUSH2 0x1A8 JUMP JUMPDEST JUMPDEST PUSH0 DUP6 ADD CALLDATALOAD PUSH8 0xFFFFFFFFFFFFFFFF DUP2 GT ISZERO PUSH2 0x246 JUMPI PUSH2 0x245 PUSH2 0x1AC JUMP JUMPDEST JUMPDEST PUSH2 0x252 DUP8 DUP3 DUP9 ADD PUSH2 0x1BC JUMP JUMPDEST SWAP5 POP SWAP5 POP POP PUSH1 0x20 DUP6 ADD CALLDATALOAD PUSH8 0xFFFFFFFFFFFFFFFF DUP2 GT ISZERO PUSH2 0x275 JUMPI PUSH2 0x274 PUSH2 0x1AC JUMP JUMPDEST JUMPDEST PUSH2 0x281 DUP8 DUP3 DUP9 ADD PUSH2 0x1BC JUMP JUMPDEST SWAP3 POP SWAP3 POP POP SWAP3 SWAP6 SWAP2 SWAP5 POP SWAP3 POP JUMP JUMPDEST PUSH0 DUP2 MLOAD SWAP1 POP SWAP2 SWAP1 POP JUMP JUMPDEST PUSH0 DUP3 DUP3 MSTORE PUSH1 0x20 DUP3 ADD SWAP1 POP SWAP3 SWAP2 POP POP JUMP JUMPDEST PUSH0 JUMPDEST DUP4 DUP2 LT ISZERO PUSH2 0x2C6 JUMPI DUP1 DUP3 ADD MLOAD DUP2 DUP5 ADD MSTORE PUSH1 0x20 DUP2 ADD SWAP1 POP PUSH2 0x2AB JUMP JUMPDEST PUSH0 DUP5 DUP5 ADD MSTORE POP POP POP POP JUMP JUMPDEST PUSH0 PUSH1 0x1F NOT PUSH1 0x1F DUP4 ADD AND SWAP1 POP SWAP2 SWAP1 POP JUMP JUMPDEST PUSH0 PUSH2 0x2EB DUP3 PUSH2 0x28F JUMP JUMPDEST PUSH2 0x2F5 DUP2 DUP6 PUSH2 0x299 JUMP JUMPDEST SWAP4 POP PUSH2 0x305 DUP2 DUP6 PUSH1 0x20 DUP7 ADD PUSH2 0x2A9 JUMP JUMPDEST PUSH2 0x30E DUP2 PUSH2 0x2D1 JUMP JUMPDEST DUP5 ADD SWAP2 POP POP SWAP3 SWAP2 POP POP JUMP JUMPDEST PUSH0 PUSH1 0x20 DUP3 ADD SWAP1 POP DUP2 DUP2 SUB PUSH0 DUP4 ADD MSTORE PUSH2 0x331 DUP2 DUP5 PUSH2 0x2E1 JUMP JUMPDEST SWAP1 POP SWAP3 SWAP2 POP POP JUMP JUMPDEST PUSH0 DUP1 REVERT JUMPDEST PUSH32 0x4E487B7100000000000000000000000000000000000000000000000000000000 PUSH0 MSTORE PUSH1 0x41 PUSH1 0x4 MSTORE PUSH1 0x24 PUSH0 REVERT JUMPDEST PUSH2 0x373 DUP3 PUSH2 0x2D1 JUMP JUMPDEST DUP2 ADD DUP2 DUP2 LT PUSH8 0xFFFFFFFFFFFFFFFF DUP3 GT OR ISZERO PUSH2 0x392 JUMPI PUSH2 0x391 PUSH2 0x33D JUMP JUMPDEST JUMPDEST DUP1 PUSH1 0x40 MSTORE POP POP POP JUMP JUMPDEST PUSH0 PUSH2 0x3A4 PUSH2 0x19F JUMP JUMPDEST SWAP1 POP PUSH2 0x3B0 DUP3 DUP3 PUSH2 0x36A JUMP JUMPDEST SWAP2 SWAP1 POP JUMP JUMPDEST PUSH0 PUSH8 0xFFFFFFFFFFFFFFFF DUP3 GT ISZERO PUSH2 0x3CF JUMPI PUSH2 0x3CE PUSH2 0x33D JUMP JUMPDEST JUMPDEST PUSH2 0x3D8 DUP3 PUSH2 0x2D1 JUMP JUMPDEST SWAP1 POP PUSH1 0x20 DUP2 ADD SWAP1 POP SWAP2 SWAP1 POP JUMP JUMPDEST DUP3 DUP2 DUP4 CALLDATACOPY PUSH0 DUP4 DUP4 ADD MSTORE POP POP POP JUMP JUMPDEST PUSH0 PUSH2 0x405 PUSH2 0x400 DUP5 PUSH2 0x3B5 JUMP JUMPDEST PUSH2 0x39B JUMP JUMPDEST SWAP1 POP DUP3 DUP2 MSTORE PUSH1 0x20 DUP2 ADD DUP5 DUP5 DUP5 ADD GT ISZERO PUSH2 0x421 JUMPI PUSH2 0x420 PUSH2 0x339 JUMP JUMPDEST JUMPDEST PUSH2 0x42C DUP5 DUP3 DUP6 PUSH2 0x3E5 JUMP JUMPDEST POP SWAP4 SWAP3 POP POP POP JUMP JUMPDEST PUSH0 DUP3 PUSH1 0x1F DUP4 ADD SLT PUSH2 0x448 JUMPI PUSH2 0x447 PUSH2 0x1B0 JUMP JUMPDEST JUMPDEST DUP2 CALLDATALOAD PUSH2 0x458 DUP5 DUP3 PUSH1 0x20 DUP7 ADD PUSH2 0x3F3 JUMP JUMPDEST SWAP2 POP POP SWAP3 SWAP2 POP POP JUMP JUMPDEST PUSH0 DUP1 PUSH1 0x40 DUP4 DUP6 SUB SLT ISZERO PUSH2 0x477 JUMPI PUSH2 0x476 PUSH2 0x1A8 JUMP JUMPDEST JUMPDEST PUSH0 DUP4 ADD CALLDATALOAD PUSH8 0xFFFFFFFFFFFFFFFF DUP2 GT ISZERO PUSH2 0x494 JUMPI PUSH2 0x493 PUSH2 0x1AC JUMP JUMPDEST JUMPDEST PUSH2 0x4A0 DUP6 DUP3 DUP7 ADD PUSH2 0x434 JUMP JUMPDEST SWAP3 POP POP PUSH1 0x20 DUP4 ADD CALLDATALOAD PUSH8 0xFFFFFFFFFFFFFFFF DUP2 GT ISZERO PUSH2 0x4C1 JUMPI PUSH2 0x4C0 PUSH2 0x1AC JUMP JUMPDEST JUMPDEST PUSH2 0x4CD DUP6 DUP3 DUP7 ADD PUSH2 0x434 JUMP JUMPDEST SWAP2 POP POP SWAP3 POP SWAP3 SWAP1 POP JUMP JUMPDEST PUSH0 DUP2 ISZERO ISZERO SWAP1 POP SWAP2 SWAP1 POP JUMP JUMPDEST PUSH2 0x4EB DUP2 PUSH2 0x4D7 JUMP JUMPDEST DUP3 MSTORE POP POP JUMP JUMPDEST PUSH0 PUSH1 0x20 DUP3 ADD SWAP1 POP PUSH2 0x504 PUSH0 DUP4 ADD DUP5 PUSH2 0x4E2 JUMP JUMPDEST SWAP3 SWAP2 POP POP JUMP JUMPDEST PUSH0 DUP2 SWAP1 POP SWAP2 SWAP1 POP JUMP JUMPDEST PUSH2 0x51C DUP2 PUSH2 0x50A JUMP JUMPDEST DUP2 EQ PUSH2 0x526 JUMPI PUSH0 DUP1 REVERT JUMPDEST POP JUMP JUMPDEST PUSH0 DUP2 CALLDATALOAD SWAP1 POP PUSH2 0x537 DUP2 PUSH2 0x513 JUMP JUMPDEST SWAP3 SWAP2 POP POP JUMP JUMPDEST PUSH0 DUP1 PUSH0 PUSH1 0x40 DUP5 DUP7 SUB SLT ISZERO PUSH2 0x554 JUMPI PUSH2 0x553 PUSH2 0x1A8 JUMP JUMPDEST JUMPDEST PUSH0 DUP5 ADD CALLDATALOAD PUSH8 0xFFFFFFFFFFFFFFFF DUP2 GT ISZERO PUSH2 0x571 JUMPI PUSH2 0x570 PUSH2 0x1AC JUMP JUMPDEST JUMPDEST PUSH2 0x57D DUP7 DUP3 DUP8 ADD PUSH2 0x1BC JUMP JUMPDEST SWAP4 POP SWAP4 POP POP PUSH1 0x20 PUSH2 0x590 DUP7 DUP3 DUP8 ADD PUSH2 0x529 JUMP JUMPDEST SWAP2 POP POP SWAP3 POP SWAP3 POP SWAP3 JUMP JUMPDEST PUSH0 DUP2 SWAP1 POP SWAP3 SWAP2 POP POP JUMP JUMPDEST PUSH0 PUSH2 0x5AF DUP4 DUP6 PUSH2 0x59A JUMP JUMPDEST SWAP4 POP PUSH2 0x5BC DUP4 DUP6 DUP5 PUSH2 0x3E5 JUMP JUMPDEST DUP3 DUP5 ADD SWAP1 POP SWAP4 SWAP3 POP POP POP JUMP JUMPDEST PUSH0 PUSH2 0x5D4 DUP3 DUP7 DUP9 PUSH2 0x5A4 JUMP JUMPDEST SWAP2 POP PUSH2 0x5E1 DUP3 DUP5 DUP7 PUSH2 0x5A4 JUMP JUMPDEST SWAP2 POP DUP2 SWAP1 POP SWAP6 SWAP5 POP POP POP POP POP JUMP JUMPDEST PUSH0 DUP3 DUP3 MSTORE PUSH1 0x20 DUP3 ADD SWAP1 POP SWAP3 SWAP2 POP POP JUMP JUMPDEST PUSH0 PUSH2 0x609 DUP3 PUSH2 0x28F JUMP JUMPDEST PUSH2 0x613 DUP2 DUP6 PUSH2 0x5EF JUMP JUMPDEST SWAP4 POP PUSH2 0x623 DUP2 DUP6 PUSH1 0x20 DUP7 ADD PUSH2 0x2A9 JUMP JUMPDEST PUSH2 0x62C DUP2 PUSH2 0x2D1 JUMP JUMPDEST DUP5 ADD SWAP2 POP POP SWAP3 SWAP2 POP POP JUMP JUMPDEST PUSH0 PUSH1 0x20 DUP3 ADD SWAP1 POP DUP2 DUP2 SUB PUSH0 DUP4 ADD MSTORE PUSH2 0x64F DUP2 DUP5 PUSH2 0x5FF JUMP JUMPDEST SWAP1 POP SWAP3 SWAP2 POP POP JUMP JUMPDEST POP JUMP JUMPDEST PUSH0 PUSH2 0x665 PUSH0 DUP4 PUSH2 0x59A JUMP JUMPDEST SWAP2 POP PUSH2 0x670 DUP3 PUSH2 0x657 JUMP JUMPDEST PUSH0 DUP3 ADD SWAP1 POP SWAP2 SWAP1 POP JUMP JUMPDEST PUSH0 PUSH2 0x686 DUP3 DUP5 DUP7 PUSH2 0x5A4 JUMP JUMPDEST SWAP2 POP PUSH2 0x691 DUP3 PUSH2 0x65A JUMP JUMPDEST SWAP2 POP DUP2 SWAP1 POP SWAP4 SWAP3 POP POP POP JUMP INVALID LOG2 PUSH5 0x6970667358 0x22 SLT KECCAK256 SUB RETURNDATASIZE CALLVALUE 0xAF NOT 0xED SWAP12 LOG0 0x4B 0x23 PUSH21 0xC2490FAE1BB107340352FA6322D8C31BE2F8CDE216 PUSH5 0x736F6C6343 STOP ADDMOD EQ STOP CALLER "
		},
		"gasEstimates": {
			"creation": {
				"codeDepositCost": "349400",
				"executionCost": "409",
				"totalCost": "349809"
			},
			"external": {
				"equals(string,string)": "infinite",
				"plus(string,string)": "infinite",
				"plus(string,uint256)": "infinite"
			}
		},
		"methodIdentifiers": {
			"equals(string,string)": "88d8da5f",
			"plus(string,string)": "03e9779f",
			"plus(string,uint256)": "9b2a1ce0"
		}
	},
	"abi": [
		{
			"inputs": [
				{
					"internalType": "string",
					"name": "t",
					"type": "string"
				},
				{
					"internalType": "string",
					"name": "p",
					"type": "string"
				}
			],
			"name": "equals",
			"outputs": [
				{
					"internalType": "bool",
					"name": "",
					"type": "bool"
				}
			],
			"stateMutability": "pure",
			"type": "function"
		},
		{
			"inputs": [
				{
					"internalType": "string",
					"name": "t",
					"type": "string"
				},
				{
					"internalType": "string",
					"name": "p",
					"type": "string"
				}
			],
			"name": "plus",
			"outputs": [
				{
					"internalType": "string",
					"name": "",
					"type": "string"
				}
			],
			"stateMutability": "pure",
			"type": "function"
		},
		{
			"inputs": [
				{
					"internalType": "string",
					"name": "t",
					"type": "string"
				},
				{
					"internalType": "uint256",
					"name": "p",
					"type": "uint256"
				}
			],
			"name": "plus",
			"outputs": [
				{
					"internalType": "string",
					"name": "",
					"type": "string"
				}
			],
			"stateMutability": "pure",
			"type": "function"
		}
	]
}