{
	"contracts/util/DateTime.sol": {
		"DateTime": {
			"abi": [
				{
					"inputs": [
						{
							"components": [
								{
									"internalType": "uint256",
									"name": "time",
									"type": "uint256"
								}
							],
							"internalType": "struct DateTime.Time",
							"name": "t",
							"type": "tuple"
						}
					],
					"name": "Now",
					"outputs": [
						{
							"components": [
								{
									"internalType": "uint256",
									"name": "time",
									"type": "uint256"
								}
							],
							"internalType": "struct DateTime.Time",
							"name": "",
							"type": "tuple"
						}
					],
					"stateMutability": "view",
					"type": "function"
				},
				{
					"inputs": [],
					"name": "Now",
					"outputs": [
						{
							"components": [
								{
									"internalType": "uint256",
									"name": "time",
									"type": "uint256"
								}
							],
							"internalType": "struct DateTime.Time",
							"name": "t",
							"type": "tuple"
						}
					],
					"stateMutability": "view",
					"type": "function"
				},
				{
					"inputs": [
						{
							"components": [
								{
									"internalType": "uint256",
									"name": "time",
									"type": "uint256"
								}
							],
							"internalType": "struct DateTime.Time",
							"name": "t",
							"type": "tuple"
						}
					],
					"name": "getTime",
					"outputs": [
						{
							"internalType": "uint256",
							"name": "",
							"type": "uint256"
						}
					],
					"stateMutability": "pure",
					"type": "function"
				},
				{
					"inputs": [
						{
							"components": [
								{
									"internalType": "uint256",
									"name": "time",
									"type": "uint256"
								}
							],
							"internalType": "struct DateTime.Time",
							"name": "t",
							"type": "tuple"
						},
						{
							"internalType": "uint256",
							"name": "n",
							"type": "uint256"
						}
					],
					"name": "setTime",
					"outputs": [],
					"stateMutability": "pure",
					"type": "function"
				}
			],
			"devdoc": {
				"details": "Collection of functions related to the Time type",
				"kind": "dev",
				"methods": {},
				"version": 1
			},
			"evm": {
				"assembly": "    /* \"contracts/util/DateTime.sol\":127:619  library DateTime{... */\n  dataSize(sub_0)\n  dataOffset(sub_0)\n  0x0b\n  dup3\n  dup3\n  dup3\n  codecopy\n  dup1\n  mload\n  0x00\n  byte\n  0x73\n  eq\n  tag_1\n  jumpi\n  mstore(0x00, 0x4e487b7100000000000000000000000000000000000000000000000000000000)\n  mstore(0x04, 0x00)\n  revert(0x00, 0x24)\ntag_1:\n  mstore(0x00, address)\n  0x73\n  dup2\n  mstore8\n  dup3\n  dup2\n  return\nstop\n\nsub_0: assembly {\n        /* \"contracts/util/DateTime.sol\":127:619  library DateTime{... */\n      eq(address, deployTimeAddress())\n      mstore(0x40, 0x80)\n      jumpi(tag_1, lt(calldatasize, 0x04))\n      shr(0xe0, calldataload(0x00))\n      dup1\n      0x3459ea0b\n      eq\n      tag_2\n      jumpi\n      dup1\n      0x44d4fd19\n      eq\n      tag_3\n      jumpi\n      dup1\n      0x7f45de99\n      eq\n      tag_4\n      jumpi\n      dup1\n      0x9592a5f2\n      eq\n      tag_5\n      jumpi\n    tag_1:\n      0x00\n      dup1\n      revert\n        /* \"contracts/util/DateTime.sol\":299:423  function Now(Time memory t) public view  returns (Time memory){... */\n    tag_2:\n      tag_6\n      0x04\n      dup1\n      calldatasize\n      sub\n      dup2\n      add\n      swap1\n      tag_7\n      swap2\n      swap1\n      tag_8\n      jump\t// in\n    tag_7:\n      tag_9\n      jump\t// in\n    tag_6:\n      mload(0x40)\n      tag_10\n      swap2\n      swap1\n      tag_11\n      jump\t// in\n    tag_10:\n      mload(0x40)\n      dup1\n      swap2\n      sub\n      swap1\n      return\n        /* \"contracts/util/DateTime.sol\":201:293  function Now()public view returns (Time memory t){... */\n    tag_3:\n      tag_12\n      tag_13\n      jump\t// in\n    tag_12:\n      mload(0x40)\n      tag_14\n      swap2\n      swap1\n      tag_11\n      jump\t// in\n    tag_14:\n      mload(0x40)\n      dup1\n      swap2\n      sub\n      swap1\n      return\n        /* \"contracts/util/DateTime.sol\":533:616  function setTime(Time memory t, uint256 n) public pure{... */\n    tag_4:\n      tag_15\n      0x04\n      dup1\n      calldatasize\n      sub\n      dup2\n      add\n      swap1\n      tag_16\n      swap2\n      swap1\n      tag_17\n      jump\t// in\n    tag_16:\n      tag_18\n      jump\t// in\n    tag_15:\n      stop\n        /* \"contracts/util/DateTime.sol\":431:525  function getTime(Time memory t) public pure  returns (uint256){... */\n    tag_5:\n      tag_19\n      0x04\n      dup1\n      calldatasize\n      sub\n      dup2\n      add\n      swap1\n      tag_20\n      swap2\n      swap1\n      tag_8\n      jump\t// in\n    tag_20:\n      tag_21\n      jump\t// in\n    tag_19:\n      mload(0x40)\n      tag_22\n      swap2\n      swap1\n      tag_23\n      jump\t// in\n    tag_22:\n      mload(0x40)\n      dup1\n      swap2\n      sub\n      swap1\n      return\n        /* \"contracts/util/DateTime.sol\":299:423  function Now(Time memory t) public view  returns (Time memory){... */\n    tag_9:\n        /* \"contracts/util/DateTime.sol\":349:360  Time memory */\n      tag_24\n      tag_25\n      jump\t// in\n    tag_24:\n        /* \"contracts/util/DateTime.sol\":381:396  block.timestamp */\n      timestamp\n        /* \"contracts/util/DateTime.sol\":372:373  t */\n      dup3\n        /* \"contracts/util/DateTime.sol\":372:378  t.time */\n      0x00\n      add\n        /* \"contracts/util/DateTime.sol\":372:396  t.time = block.timestamp */\n      dup2\n      dup2\n      mstore\n      pop\n      pop\n        /* \"contracts/util/DateTime.sol\":414:415  t */\n      dup2\n        /* \"contracts/util/DateTime.sol\":407:415  return t */\n      swap1\n      pop\n        /* \"contracts/util/DateTime.sol\":299:423  function Now(Time memory t) public view  returns (Time memory){... */\n      swap2\n      swap1\n      pop\n      jump\t// out\n        /* \"contracts/util/DateTime.sol\":201:293  function Now()public view returns (Time memory t){... */\n    tag_13:\n        /* \"contracts/util/DateTime.sol\":236:249  Time memory t */\n      tag_27\n      tag_25\n      jump\t// in\n    tag_27:\n        /* \"contracts/util/DateTime.sol\":270:285  block.timestamp */\n      timestamp\n        /* \"contracts/util/DateTime.sol\":261:262  t */\n      dup2\n        /* \"contracts/util/DateTime.sol\":261:267  t.time */\n      0x00\n      add\n        /* \"contracts/util/DateTime.sol\":261:285  t.time = block.timestamp */\n      dup2\n      dup2\n      mstore\n      pop\n      pop\n        /* \"contracts/util/DateTime.sol\":201:293  function Now()public view returns (Time memory t){... */\n      swap1\n      jump\t// out\n        /* \"contracts/util/DateTime.sol\":533:616  function setTime(Time memory t, uint256 n) public pure{... */\n    tag_18:\n        /* \"contracts/util/DateTime.sol\":607:608  n */\n      dup1\n        /* \"contracts/util/DateTime.sol\":598:599  t */\n      dup3\n        /* \"contracts/util/DateTime.sol\":598:604  t.time */\n      0x00\n      add\n        /* \"contracts/util/DateTime.sol\":598:608  t.time = n */\n      dup2\n      dup2\n      mstore\n      pop\n      pop\n        /* \"contracts/util/DateTime.sol\":533:616  function setTime(Time memory t, uint256 n) public pure{... */\n      pop\n      pop\n      jump\t// out\n        /* \"contracts/util/DateTime.sol\":431:525  function getTime(Time memory t) public pure  returns (uint256){... */\n    tag_21:\n        /* \"contracts/util/DateTime.sol\":485:492  uint256 */\n      0x00\n        /* \"contracts/util/DateTime.sol\":511:512  t */\n      dup2\n        /* \"contracts/util/DateTime.sol\":511:517  t.time */\n      0x00\n      add\n      mload\n        /* \"contracts/util/DateTime.sol\":504:517  return t.time */\n      swap1\n      pop\n        /* \"contracts/util/DateTime.sol\":431:525  function getTime(Time memory t) public pure  returns (uint256){... */\n      swap2\n      swap1\n      pop\n      jump\t// out\n    tag_25:\n      mload(0x40)\n      dup1\n      0x20\n      add\n      0x40\n      mstore\n      dup1\n      0x00\n      dup2\n      mstore\n      pop\n      swap1\n      jump\t// out\n        /* \"#utility.yul\":7:82   */\n    tag_31:\n        /* \"#utility.yul\":40:46   */\n      0x00\n        /* \"#utility.yul\":73:75   */\n      0x40\n        /* \"#utility.yul\":67:76   */\n      mload\n        /* \"#utility.yul\":57:76   */\n      swap1\n      pop\n        /* \"#utility.yul\":7:82   */\n      swap1\n      jump\t// out\n        /* \"#utility.yul\":88:205   */\n    tag_32:\n        /* \"#utility.yul\":197:198   */\n      0x00\n        /* \"#utility.yul\":194:195   */\n      dup1\n        /* \"#utility.yul\":187:199   */\n      revert\n        /* \"#utility.yul\":334:451   */\n    tag_34:\n        /* \"#utility.yul\":443:444   */\n      0x00\n        /* \"#utility.yul\":440:441   */\n      dup1\n        /* \"#utility.yul\":433:445   */\n      revert\n        /* \"#utility.yul\":457:559   */\n    tag_35:\n        /* \"#utility.yul\":498:504   */\n      0x00\n        /* \"#utility.yul\":549:551   */\n      0x1f\n        /* \"#utility.yul\":545:552   */\n      not\n        /* \"#utility.yul\":540:542   */\n      0x1f\n        /* \"#utility.yul\":533:538   */\n      dup4\n        /* \"#utility.yul\":529:543   */\n      add\n        /* \"#utility.yul\":525:553   */\n      and\n        /* \"#utility.yul\":515:553   */\n      swap1\n      pop\n        /* \"#utility.yul\":457:559   */\n      swap2\n      swap1\n      pop\n      jump\t// out\n        /* \"#utility.yul\":565:745   */\n    tag_36:\n        /* \"#utility.yul\":613:690   */\n      0x4e487b7100000000000000000000000000000000000000000000000000000000\n        /* \"#utility.yul\":610:611   */\n      0x00\n        /* \"#utility.yul\":603:691   */\n      mstore\n        /* \"#utility.yul\":710:714   */\n      0x41\n        /* \"#utility.yul\":707:708   */\n      0x04\n        /* \"#utility.yul\":700:715   */\n      mstore\n        /* \"#utility.yul\":734:738   */\n      0x24\n        /* \"#utility.yul\":731:732   */\n      0x00\n        /* \"#utility.yul\":724:739   */\n      revert\n        /* \"#utility.yul\":751:1032   */\n    tag_37:\n        /* \"#utility.yul\":834:861   */\n      tag_55\n        /* \"#utility.yul\":856:860   */\n      dup3\n        /* \"#utility.yul\":834:861   */\n      tag_35\n      jump\t// in\n    tag_55:\n        /* \"#utility.yul\":826:832   */\n      dup2\n        /* \"#utility.yul\":822:862   */\n      add\n        /* \"#utility.yul\":964:970   */\n      dup2\n        /* \"#utility.yul\":952:962   */\n      dup2\n        /* \"#utility.yul\":949:971   */\n      lt\n        /* \"#utility.yul\":928:946   */\n      0xffffffffffffffff\n        /* \"#utility.yul\":916:926   */\n      dup3\n        /* \"#utility.yul\":913:947   */\n      gt\n        /* \"#utility.yul\":910:972   */\n      or\n        /* \"#utility.yul\":907:995   */\n      iszero\n      tag_56\n      jumpi\n        /* \"#utility.yul\":975:993   */\n      tag_57\n      tag_36\n      jump\t// in\n    tag_57:\n        /* \"#utility.yul\":907:995   */\n    tag_56:\n        /* \"#utility.yul\":1015:1025   */\n      dup1\n        /* \"#utility.yul\":1011:1013   */\n      0x40\n        /* \"#utility.yul\":1004:1026   */\n      mstore\n        /* \"#utility.yul\":794:1032   */\n      pop\n        /* \"#utility.yul\":751:1032   */\n      pop\n      pop\n      jump\t// out\n        /* \"#utility.yul\":1038:1167   */\n    tag_38:\n        /* \"#utility.yul\":1072:1078   */\n      0x00\n        /* \"#utility.yul\":1099:1119   */\n      tag_59\n      tag_31\n      jump\t// in\n    tag_59:\n        /* \"#utility.yul\":1089:1119   */\n      swap1\n      pop\n        /* \"#utility.yul\":1128:1161   */\n      tag_60\n        /* \"#utility.yul\":1156:1160   */\n      dup3\n        /* \"#utility.yul\":1148:1154   */\n      dup3\n        /* \"#utility.yul\":1128:1161   */\n      tag_37\n      jump\t// in\n    tag_60:\n        /* \"#utility.yul\":1038:1167   */\n      swap2\n      swap1\n      pop\n      jump\t// out\n        /* \"#utility.yul\":1296:1373   */\n    tag_40:\n        /* \"#utility.yul\":1333:1340   */\n      0x00\n        /* \"#utility.yul\":1362:1367   */\n      dup2\n        /* \"#utility.yul\":1351:1367   */\n      swap1\n      pop\n        /* \"#utility.yul\":1296:1373   */\n      swap2\n      swap1\n      pop\n      jump\t// out\n        /* \"#utility.yul\":1379:1501   */\n    tag_41:\n        /* \"#utility.yul\":1452:1476   */\n      tag_64\n        /* \"#utility.yul\":1470:1475   */\n      dup2\n        /* \"#utility.yul\":1452:1476   */\n      tag_40\n      jump\t// in\n    tag_64:\n        /* \"#utility.yul\":1445:1450   */\n      dup2\n        /* \"#utility.yul\":1442:1477   */\n      eq\n        /* \"#utility.yul\":1432:1495   */\n      tag_65\n      jumpi\n        /* \"#utility.yul\":1491:1492   */\n      0x00\n        /* \"#utility.yul\":1488:1489   */\n      dup1\n        /* \"#utility.yul\":1481:1493   */\n      revert\n        /* \"#utility.yul\":1432:1495   */\n    tag_65:\n        /* \"#utility.yul\":1379:1501   */\n      pop\n      jump\t// out\n        /* \"#utility.yul\":1507:1646   */\n    tag_42:\n        /* \"#utility.yul\":1553:1558   */\n      0x00\n        /* \"#utility.yul\":1591:1597   */\n      dup2\n        /* \"#utility.yul\":1578:1598   */\n      calldataload\n        /* \"#utility.yul\":1569:1598   */\n      swap1\n      pop\n        /* \"#utility.yul\":1607:1640   */\n      tag_67\n        /* \"#utility.yul\":1634:1639   */\n      dup2\n        /* \"#utility.yul\":1607:1640   */\n      tag_41\n      jump\t// in\n    tag_67:\n        /* \"#utility.yul\":1507:1646   */\n      swap3\n      swap2\n      pop\n      pop\n      jump\t// out\n        /* \"#utility.yul\":1680:2087   */\n    tag_43:\n        /* \"#utility.yul\":1748:1753   */\n      0x00\n        /* \"#utility.yul\":1792:1796   */\n      0x20\n        /* \"#utility.yul\":1780:1789   */\n      dup3\n        /* \"#utility.yul\":1775:1778   */\n      dup5\n        /* \"#utility.yul\":1771:1790   */\n      sub\n        /* \"#utility.yul\":1767:1797   */\n      slt\n        /* \"#utility.yul\":1764:1881   */\n      iszero\n      tag_69\n      jumpi\n        /* \"#utility.yul\":1800:1879   */\n      tag_70\n      tag_34\n      jump\t// in\n    tag_70:\n        /* \"#utility.yul\":1764:1881   */\n    tag_69:\n        /* \"#utility.yul\":1899:1920   */\n      tag_71\n        /* \"#utility.yul\":1915:1919   */\n      0x20\n        /* \"#utility.yul\":1899:1920   */\n      tag_38\n      jump\t// in\n    tag_71:\n        /* \"#utility.yul\":1890:1920   */\n      swap1\n      pop\n        /* \"#utility.yul\":1979:1980   */\n      0x00\n        /* \"#utility.yul\":2019:2068   */\n      tag_72\n        /* \"#utility.yul\":2064:2067   */\n      dup5\n        /* \"#utility.yul\":2055:2061   */\n      dup3\n        /* \"#utility.yul\":2044:2053   */\n      dup6\n        /* \"#utility.yul\":2040:2062   */\n      add\n        /* \"#utility.yul\":2019:2068   */\n      tag_42\n      jump\t// in\n    tag_72:\n        /* \"#utility.yul\":2012:2016   */\n      0x00\n        /* \"#utility.yul\":2005:2010   */\n      dup4\n        /* \"#utility.yul\":2001:2017   */\n      add\n        /* \"#utility.yul\":1994:2069   */\n      mstore\n        /* \"#utility.yul\":1930:2080   */\n      pop\n        /* \"#utility.yul\":1680:2087   */\n      swap3\n      swap2\n      pop\n      pop\n      jump\t// out\n        /* \"#utility.yul\":2093:2460   */\n    tag_8:\n        /* \"#utility.yul\":2171:2177   */\n      0x00\n        /* \"#utility.yul\":2220:2222   */\n      0x20\n        /* \"#utility.yul\":2208:2217   */\n      dup3\n        /* \"#utility.yul\":2199:2206   */\n      dup5\n        /* \"#utility.yul\":2195:2218   */\n      sub\n        /* \"#utility.yul\":2191:2223   */\n      slt\n        /* \"#utility.yul\":2188:2307   */\n      iszero\n      tag_74\n      jumpi\n        /* \"#utility.yul\":2226:2305   */\n      tag_75\n      tag_32\n      jump\t// in\n    tag_75:\n        /* \"#utility.yul\":2188:2307   */\n    tag_74:\n        /* \"#utility.yul\":2346:2347   */\n      0x00\n        /* \"#utility.yul\":2371:2443   */\n      tag_76\n        /* \"#utility.yul\":2435:2442   */\n      dup5\n        /* \"#utility.yul\":2426:2432   */\n      dup3\n        /* \"#utility.yul\":2415:2424   */\n      dup6\n        /* \"#utility.yul\":2411:2433   */\n      add\n        /* \"#utility.yul\":2371:2443   */\n      tag_43\n      jump\t// in\n    tag_76:\n        /* \"#utility.yul\":2361:2443   */\n      swap2\n      pop\n        /* \"#utility.yul\":2317:2453   */\n      pop\n        /* \"#utility.yul\":2093:2460   */\n      swap3\n      swap2\n      pop\n      pop\n      jump\t// out\n        /* \"#utility.yul\":2466:2582   */\n    tag_44:\n        /* \"#utility.yul\":2551:2575   */\n      tag_78\n        /* \"#utility.yul\":2569:2574   */\n      dup2\n        /* \"#utility.yul\":2551:2575   */\n      tag_40\n      jump\t// in\n    tag_78:\n        /* \"#utility.yul\":2546:2549   */\n      dup3\n        /* \"#utility.yul\":2539:2576   */\n      mstore\n        /* \"#utility.yul\":2466:2582   */\n      pop\n      pop\n      jump\t// out\n        /* \"#utility.yul\":2640:2977   */\n    tag_45:\n        /* \"#utility.yul\":2783:2787   */\n      0x20\n        /* \"#utility.yul\":2778:2781   */\n      dup3\n        /* \"#utility.yul\":2774:2788   */\n      add\n        /* \"#utility.yul\":2870:2874   */\n      0x00\n        /* \"#utility.yul\":2863:2868   */\n      dup3\n        /* \"#utility.yul\":2859:2875   */\n      add\n        /* \"#utility.yul\":2853:2876   */\n      mload\n        /* \"#utility.yul\":2889:2960   */\n      tag_80\n        /* \"#utility.yul\":2954:2958   */\n      0x00\n        /* \"#utility.yul\":2949:2952   */\n      dup6\n        /* \"#utility.yul\":2945:2959   */\n      add\n        /* \"#utility.yul\":2931:2943   */\n      dup3\n        /* \"#utility.yul\":2889:2960   */\n      tag_44\n      jump\t// in\n    tag_80:\n        /* \"#utility.yul\":2798:2970   */\n      pop\n        /* \"#utility.yul\":2752:2977   */\n      pop\n        /* \"#utility.yul\":2640:2977   */\n      pop\n      pop\n      jump\t// out\n        /* \"#utility.yul\":2983:3297   */\n    tag_11:\n        /* \"#utility.yul\":3122:3126   */\n      0x00\n        /* \"#utility.yul\":3160:3162   */\n      0x20\n        /* \"#utility.yul\":3149:3158   */\n      dup3\n        /* \"#utility.yul\":3145:3163   */\n      add\n        /* \"#utility.yul\":3137:3163   */\n      swap1\n      pop\n        /* \"#utility.yul\":3173:3290   */\n      tag_82\n        /* \"#utility.yul\":3287:3288   */\n      0x00\n        /* \"#utility.yul\":3276:3285   */\n      dup4\n        /* \"#utility.yul\":3272:3289   */\n      add\n        /* \"#utility.yul\":3263:3269   */\n      dup5\n        /* \"#utility.yul\":3173:3290   */\n      tag_45\n      jump\t// in\n    tag_82:\n        /* \"#utility.yul\":2983:3297   */\n      swap3\n      swap2\n      pop\n      pop\n      jump\t// out\n        /* \"#utility.yul\":3303:3815   */\n    tag_17:\n        /* \"#utility.yul\":3390:3396   */\n      0x00\n        /* \"#utility.yul\":3398:3404   */\n      dup1\n        /* \"#utility.yul\":3447:3449   */\n      0x40\n        /* \"#utility.yul\":3435:3444   */\n      dup4\n        /* \"#utility.yul\":3426:3433   */\n      dup6\n        /* \"#utility.yul\":3422:3445   */\n      sub\n        /* \"#utility.yul\":3418:3450   */\n      slt\n        /* \"#utility.yul\":3415:3534   */\n      iszero\n      tag_84\n      jumpi\n        /* \"#utility.yul\":3453:3532   */\n      tag_85\n      tag_32\n      jump\t// in\n    tag_85:\n        /* \"#utility.yul\":3415:3534   */\n    tag_84:\n        /* \"#utility.yul\":3573:3574   */\n      0x00\n        /* \"#utility.yul\":3598:3670   */\n      tag_86\n        /* \"#utility.yul\":3662:3669   */\n      dup6\n        /* \"#utility.yul\":3653:3659   */\n      dup3\n        /* \"#utility.yul\":3642:3651   */\n      dup7\n        /* \"#utility.yul\":3638:3660   */\n      add\n        /* \"#utility.yul\":3598:3670   */\n      tag_43\n      jump\t// in\n    tag_86:\n        /* \"#utility.yul\":3588:3670   */\n      swap3\n      pop\n        /* \"#utility.yul\":3544:3680   */\n      pop\n        /* \"#utility.yul\":3719:3721   */\n      0x20\n        /* \"#utility.yul\":3745:3798   */\n      tag_87\n        /* \"#utility.yul\":3790:3797   */\n      dup6\n        /* \"#utility.yul\":3781:3787   */\n      dup3\n        /* \"#utility.yul\":3770:3779   */\n      dup7\n        /* \"#utility.yul\":3766:3788   */\n      add\n        /* \"#utility.yul\":3745:3798   */\n      tag_42\n      jump\t// in\n    tag_87:\n        /* \"#utility.yul\":3735:3798   */\n      swap2\n      pop\n        /* \"#utility.yul\":3690:3808   */\n      pop\n        /* \"#utility.yul\":3303:3815   */\n      swap3\n      pop\n      swap3\n      swap1\n      pop\n      jump\t// out\n        /* \"#utility.yul\":3821:3947   */\n    tag_46:\n        /* \"#utility.yul\":3916:3940   */\n      tag_89\n        /* \"#utility.yul\":3934:3939   */\n      dup2\n        /* \"#utility.yul\":3916:3940   */\n      tag_40\n      jump\t// in\n    tag_89:\n        /* \"#utility.yul\":3911:3914   */\n      dup3\n        /* \"#utility.yul\":3904:3941   */\n      mstore\n        /* \"#utility.yul\":3821:3947   */\n      pop\n      pop\n      jump\t// out\n        /* \"#utility.yul\":3953:4191   */\n    tag_23:\n        /* \"#utility.yul\":4054:4058   */\n      0x00\n        /* \"#utility.yul\":4092:4094   */\n      0x20\n        /* \"#utility.yul\":4081:4090   */\n      dup3\n        /* \"#utility.yul\":4077:4095   */\n      add\n        /* \"#utility.yul\":4069:4095   */\n      swap1\n      pop\n        /* \"#utility.yul\":4105:4184   */\n      tag_91\n        /* \"#utility.yul\":4181:4182   */\n      0x00\n        /* \"#utility.yul\":4170:4179   */\n      dup4\n        /* \"#utility.yul\":4166:4183   */\n      add\n        /* \"#utility.yul\":4157:4163   */\n      dup5\n        /* \"#utility.yul\":4105:4184   */\n      tag_46\n      jump\t// in\n    tag_91:\n        /* \"#utility.yul\":3953:4191   */\n      swap3\n      swap2\n      pop\n      pop\n      jump\t// out\n\n    auxdata: 0xa264697066735822122017e6d2fb722bb53ef0e312e65db6188f89d9105ee83133ae143a602cbac7c43464736f6c63430008140033\n}\n",
				"bytecode": {
					"linkReferences": {},
					"object": "61035961004e600b8282823980515f1a607314610042577f4e487b71000000000000000000000000000000000000000000000000000000005f525f60045260245ffd5b305f52607381538281f3fe7300000000000000000000000000000000000000003014608060405260043610610055575f3560e01c80633459ea0b1461005957806344d4fd19146100895780637f45de99146100a75780639592a5f2146100c3575b5f80fd5b610073600480360381019061006e9190610250565b6100f3565b60405161008091906102a4565b60405180910390f35b61009161010c565b60405161009e91906102a4565b60405180910390f35b6100c160048036038101906100bc91906102bd565b610120565b005b6100dd60048036038101906100d89190610250565b61012d565b6040516100ea919061030a565b60405180910390f35b6100fb610139565b42825f018181525050819050919050565b610114610139565b42815f01818152505090565b80825f0181815250505050565b5f815f01519050919050565b60405180602001604052805f81525090565b5f604051905090565b5f80fd5b5f80fd5b5f601f19601f8301169050919050565b7f4e487b71000000000000000000000000000000000000000000000000000000005f52604160045260245ffd5b6101a28261015c565b810181811067ffffffffffffffff821117156101c1576101c061016c565b5b80604052505050565b5f6101d361014b565b90506101df8282610199565b919050565b5f819050919050565b6101f6816101e4565b8114610200575f80fd5b50565b5f81359050610211816101ed565b92915050565b5f6020828403121561022c5761022b610158565b5b61023660206101ca565b90505f61024584828501610203565b5f8301525092915050565b5f6020828403121561026557610264610154565b5b5f61027284828501610217565b91505092915050565b610284816101e4565b82525050565b602082015f82015161029e5f85018261027b565b50505050565b5f6020820190506102b75f83018461028a565b92915050565b5f80604083850312156102d3576102d2610154565b5b5f6102e085828601610217565b92505060206102f185828601610203565b9150509250929050565b610304816101e4565b82525050565b5f60208201905061031d5f8301846102fb565b9291505056fea264697066735822122017e6d2fb722bb53ef0e312e65db6188f89d9105ee83133ae143a602cbac7c43464736f6c63430008140033",
					"opcodes": "PUSH2 0x359 PUSH2 0x4E PUSH1 0xB DUP3 DUP3 DUP3 CODECOPY DUP1 MLOAD PUSH0 BYTE PUSH1 0x73 EQ PUSH2 0x42 JUMPI PUSH32 0x4E487B7100000000000000000000000000000000000000000000000000000000 PUSH0 MSTORE PUSH0 PUSH1 0x4 MSTORE PUSH1 0x24 PUSH0 REVERT JUMPDEST ADDRESS PUSH0 MSTORE PUSH1 0x73 DUP2 MSTORE8 DUP3 DUP2 RETURN INVALID PUSH20 0x0 ADDRESS EQ PUSH1 0x80 PUSH1 0x40 MSTORE PUSH1 0x4 CALLDATASIZE LT PUSH2 0x55 JUMPI PUSH0 CALLDATALOAD PUSH1 0xE0 SHR DUP1 PUSH4 0x3459EA0B EQ PUSH2 0x59 JUMPI DUP1 PUSH4 0x44D4FD19 EQ PUSH2 0x89 JUMPI DUP1 PUSH4 0x7F45DE99 EQ PUSH2 0xA7 JUMPI DUP1 PUSH4 0x9592A5F2 EQ PUSH2 0xC3 JUMPI JUMPDEST PUSH0 DUP1 REVERT JUMPDEST PUSH2 0x73 PUSH1 0x4 DUP1 CALLDATASIZE SUB DUP2 ADD SWAP1 PUSH2 0x6E SWAP2 SWAP1 PUSH2 0x250 JUMP JUMPDEST PUSH2 0xF3 JUMP JUMPDEST PUSH1 0x40 MLOAD PUSH2 0x80 SWAP2 SWAP1 PUSH2 0x2A4 JUMP JUMPDEST PUSH1 0x40 MLOAD DUP1 SWAP2 SUB SWAP1 RETURN JUMPDEST PUSH2 0x91 PUSH2 0x10C JUMP JUMPDEST PUSH1 0x40 MLOAD PUSH2 0x9E SWAP2 SWAP1 PUSH2 0x2A4 JUMP JUMPDEST PUSH1 0x40 MLOAD DUP1 SWAP2 SUB SWAP1 RETURN JUMPDEST PUSH2 0xC1 PUSH1 0x4 DUP1 CALLDATASIZE SUB DUP2 ADD SWAP1 PUSH2 0xBC SWAP2 SWAP1 PUSH2 0x2BD JUMP JUMPDEST PUSH2 0x120 JUMP JUMPDEST STOP JUMPDEST PUSH2 0xDD PUSH1 0x4 DUP1 CALLDATASIZE SUB DUP2 ADD SWAP1 PUSH2 0xD8 SWAP2 SWAP1 PUSH2 0x250 JUMP JUMPDEST PUSH2 0x12D JUMP JUMPDEST PUSH1 0x40 MLOAD PUSH2 0xEA SWAP2 SWAP1 PUSH2 0x30A JUMP JUMPDEST PUSH1 0x40 MLOAD DUP1 SWAP2 SUB SWAP1 RETURN JUMPDEST PUSH2 0xFB PUSH2 0x139 JUMP JUMPDEST TIMESTAMP DUP3 PUSH0 ADD DUP2 DUP2 MSTORE POP POP DUP2 SWAP1 POP SWAP2 SWAP1 POP JUMP JUMPDEST PUSH2 0x114 PUSH2 0x139 JUMP JUMPDEST TIMESTAMP DUP2 PUSH0 ADD DUP2 DUP2 MSTORE POP POP SWAP1 JUMP JUMPDEST DUP1 DUP3 PUSH0 ADD DUP2 DUP2 MSTORE POP POP POP POP JUMP JUMPDEST PUSH0 DUP2 PUSH0 ADD MLOAD SWAP1 POP SWAP2 SWAP1 POP JUMP JUMPDEST PUSH1 0x40 MLOAD DUP1 PUSH1 0x20 ADD PUSH1 0x40 MSTORE DUP1 PUSH0 DUP2 MSTORE POP SWAP1 JUMP JUMPDEST PUSH0 PUSH1 0x40 MLOAD SWAP1 POP SWAP1 JUMP JUMPDEST PUSH0 DUP1 REVERT JUMPDEST PUSH0 DUP1 REVERT JUMPDEST PUSH0 PUSH1 0x1F NOT PUSH1 0x1F DUP4 ADD AND SWAP1 POP SWAP2 SWAP1 POP JUMP JUMPDEST PUSH32 0x4E487B7100000000000000000000000000000000000000000000000000000000 PUSH0 MSTORE PUSH1 0x41 PUSH1 0x4 MSTORE PUSH1 0x24 PUSH0 REVERT JUMPDEST PUSH2 0x1A2 DUP3 PUSH2 0x15C JUMP JUMPDEST DUP2 ADD DUP2 DUP2 LT PUSH8 0xFFFFFFFFFFFFFFFF DUP3 GT OR ISZERO PUSH2 0x1C1 JUMPI PUSH2 0x1C0 PUSH2 0x16C JUMP JUMPDEST JUMPDEST DUP1 PUSH1 0x40 MSTORE POP POP POP JUMP JUMPDEST PUSH0 PUSH2 0x1D3 PUSH2 0x14B JUMP JUMPDEST SWAP1 POP PUSH2 0x1DF DUP3 DUP3 PUSH2 0x199 JUMP JUMPDEST SWAP2 SWAP1 POP JUMP JUMPDEST PUSH0 DUP2 SWAP1 POP SWAP2 SWAP1 POP JUMP JUMPDEST PUSH2 0x1F6 DUP2 PUSH2 0x1E4 JUMP JUMPDEST DUP2 EQ PUSH2 0x200 JUMPI PUSH0 DUP1 REVERT JUMPDEST POP JUMP JUMPDEST PUSH0 DUP2 CALLDATALOAD SWAP1 POP PUSH2 0x211 DUP2 PUSH2 0x1ED JUMP JUMPDEST SWAP3 SWAP2 POP POP JUMP JUMPDEST PUSH0 PUSH1 0x20 DUP3 DUP5 SUB SLT ISZERO PUSH2 0x22C JUMPI PUSH2 0x22B PUSH2 0x158 JUMP JUMPDEST JUMPDEST PUSH2 0x236 PUSH1 0x20 PUSH2 0x1CA JUMP JUMPDEST SWAP1 POP PUSH0 PUSH2 0x245 DUP5 DUP3 DUP6 ADD PUSH2 0x203 JUMP JUMPDEST PUSH0 DUP4 ADD MSTORE POP SWAP3 SWAP2 POP POP JUMP JUMPDEST PUSH0 PUSH1 0x20 DUP3 DUP5 SUB SLT ISZERO PUSH2 0x265 JUMPI PUSH2 0x264 PUSH2 0x154 JUMP JUMPDEST JUMPDEST PUSH0 PUSH2 0x272 DUP5 DUP3 DUP6 ADD PUSH2 0x217 JUMP JUMPDEST SWAP2 POP POP SWAP3 SWAP2 POP POP JUMP JUMPDEST PUSH2 0x284 DUP2 PUSH2 0x1E4 JUMP JUMPDEST DUP3 MSTORE POP POP JUMP JUMPDEST PUSH1 0x20 DUP3 ADD PUSH0 DUP3 ADD MLOAD PUSH2 0x29E PUSH0 DUP6 ADD DUP3 PUSH2 0x27B JUMP JUMPDEST POP POP POP POP JUMP JUMPDEST PUSH0 PUSH1 0x20 DUP3 ADD SWAP1 POP PUSH2 0x2B7 PUSH0 DUP4 ADD DUP5 PUSH2 0x28A JUMP JUMPDEST SWAP3 SWAP2 POP POP JUMP JUMPDEST PUSH0 DUP1 PUSH1 0x40 DUP4 DUP6 SUB SLT ISZERO PUSH2 0x2D3 JUMPI PUSH2 0x2D2 PUSH2 0x154 JUMP JUMPDEST JUMPDEST PUSH0 PUSH2 0x2E0 DUP6 DUP3 DUP7 ADD PUSH2 0x217 JUMP JUMPDEST SWAP3 POP POP PUSH1 0x20 PUSH2 0x2F1 DUP6 DUP3 DUP7 ADD PUSH2 0x203 JUMP JUMPDEST SWAP2 POP POP SWAP3 POP SWAP3 SWAP1 POP JUMP JUMPDEST PUSH2 0x304 DUP2 PUSH2 0x1E4 JUMP JUMPDEST DUP3 MSTORE POP POP JUMP JUMPDEST PUSH0 PUSH1 0x20 DUP3 ADD SWAP1 POP PUSH2 0x31D PUSH0 DUP4 ADD DUP5 PUSH2 0x2FB JUMP JUMPDEST SWAP3 SWAP2 POP POP JUMP INVALID LOG2 PUSH5 0x6970667358 0x22 SLT KECCAK256 OR 0xE6 0xD2 0xFB PUSH19 0x2BB53EF0E312E65DB6188F89D9105EE83133AE EQ GASPRICE PUSH1 0x2C 0xBA 0xC7 0xC4 CALLVALUE PUSH5 0x736F6C6343 STOP ADDMOD EQ STOP CALLER "
				},
				"gasEstimates": {
					"creation": {
						"codeDepositCost": "171400",
						"executionCost": "240",
						"totalCost": "171640"
					},
					"external": {
						"Now()": "456",
						"Now(DateTime.Time)": "infinite",
						"getTime(DateTime.Time)": "infinite",
						"setTime(DateTime.Time,uint256)": "infinite"
					}
				},
				"methodIdentifiers": {
					"Now()": "44d4fd19",
					"Now(DateTime.Time)": "3459ea0b",
					"getTime(DateTime.Time)": "9592a5f2",
					"setTime(DateTime.Time,uint256)": "7f45de99"
				}
			},
			"storageLayout": {
				"storage": [],
				"types": null
			},
			"userdoc": {
				"kind": "user",
				"methods": {},
				"version": 1
			}
		}
	}
}